:040000000DEF00F010
:0400080053EF0BF0B7
:06001800FF0034EF0BF0C5
:071000000083000200000064
:10100800A2EC0BF0D28E000E00016A6F000E696F21
:1010180069C060F06AC061F0000E636F030E626F12
:10102800B9EC0BF0770E00016025D96E000E612136
:10103800DA6E000EDF6E69C060F06AC061F0000E03
:10104800636F030E626FB9EC0BF0750E000160253B
:10105800D96E000E6121DA6E000EDF6E69C060F095
:101068006AC061F0000E636F030E626FB9EC0BF09B
:10107800760E00016025D96E000E6121DA6E000E31
:10108800DF6E694B6A2B6ABF53EF08F06A5109E1BA
:10109800F00E695DD8A053EF08F055EF08F00CEF9B
:1010A80008F03D011A83D00E0001666FC90EE82EC4
:1010B800FED7662FFCD700D0C492000E366E000E05
:1010C800376E000E386E000E396E000E1C6E0A0E5A
:1010D8001B6E000E1E6E000E1D6E320E276E000E69
:1010E800256E000E266E000E206E050E1F6E000E79
:1010F800226E010E216E000E236E010E246E000E6C
:101108000F6E320E0E6E000E116E280E106E000E4F
:101118001A6E320E186E000E196E000E136E050E42
:10112800126E000E156E020E146E000E166E010E73
:10113800176E000E026E640E016E000E046E500EE5
:10114800036E000E0D6E000E0B6E320E0C6E000E4E
:10115800066E050E056E000E086E030E076E000E75
:10116800096E010E0A6E320E366E000E376E000ED4
:10117800386E000E396E010E0001686FBB0E676F86
:1011880071EC0BF0E806D8A4CCEF08F0CEEF08F02D
:10119800C4EF08F000016707D8A068076751681115
:1011A800D8A4D9EF08F0DBEF08F0C4EF08F0360652
:1011B800000E375A385A395A365037103810391005
:1011C800D8A4E9EF08F0EBEF08F0BFEF08F01DC076
:1011D80060F01EC061F0000E636F030E626FB9EC21
:1011E8000BF0770E00016025D96E000E6121DA6ED2
:1011F800000EDF6E1BC060F01CC061F0000E636F54
:10120800030E626FB9EC0BF0770E00016025D96E02
:10121800000E6121DA6E60009FF0DFFF23062328AD
:10122800D8A419EF09F01BEF09F045EF09F021C028
:1012380023F01D4A1E2A1EBE2BEF09F01E5009E19D
:10124800F00E1D5CD8A02BEF09F02DEF09F031EF5F
:1012580009F0000E1E6E000E1D6E1B4A1C2A1CBED5
:101268003FEF09F01C5009E1F00E1B5CD8A03FEFDE
:1012780009F041EF09F045EF09F0000E1C6E000E71
:101288001B6E10C060F011C061F0000E636F030E9A
:10129800626FB9EC0BF0750E00016025D96E000E77
:1012A8006121DA6E000EDF6E0EC060F00FC061F0D3
:1012B800000E636F030E626FB9EC0BF0750E000140
:1012C8006025D96E000E6121DA6E600063F0DFFFE1
:1012D80016061628D8A473EF09F075EF09F09FEFEA
:1012E80009F014C016F0104A112A11BE85EF09F052
:1012F800115009E1F00E105CD8A085EF09F087EFD6
:1013080009F08BEF09F0000E116E000E106E0E4AF8
:101318000F2A0FBE99EF09F00F5009E1F00E0E5C8D
:10132800D8A099EF09F09BEF09F09FEF09F0000EA4
:101338000F6E000E0E6E03C060F004C061F0000E68
:10134800636F030E626FB9EC0BF0760E0001602537
:10135800D96E000E6121DA6E000EDF6E01C060F0FA
:1013680002C061F0000E636F030E626FB9EC0BF000
:10137800760E00016025D96E000E6121DA6E6000DC
:1013880033F0DFFF09060928D8A4CDEF09F0CFEF25
:1013980009F0F9EF09F007C009F0034A042A04BE6E
:1013A800DFEF09F0045009E1F00E035CD8A0DFEF8D
:1013B80009F0E1EF09F0E5EF09F0000E046E000E08
:1013C800036E014A022A02BEF3EF09F0025009E156
:1013D800F00E015CD8A0F3EF09F0F5EF09F0F9EF92
:1013E80009F0000E026E000E016E000E426E3B0107
:1013F800FC9F750EF96F000EFA6F000EFB6F020E60
:10140800F86FEE0EF76FFC8FBC82FC8DB7EF08F01B
:101418000DEF00F079EF0AF0BC923B01FC9FFA0E49
:101428003C26000E3D223CC043F03DC044F0000E77
:10143800466E030E456EE5EC0BF0750E496E000E18
:101448004A6E4350492644504A22600027F1F9FB6E
:1014580060002BF1FAFB3B01FB6B000E4E6EFA0E9F
:101468004D6E4D503C244B6E4E503D204C6E4CBE44
:1014780047EF0AF04C5009E1F00E4B5CD8A047EF5B
:101488000AF049EF0AF05AEF0AF0FF0E4E6EF60E18
:101498004D6E010E426E4D504E10D8A456EF0AF014
:1014A80058EF0AF05AEF0AF08EEF0AF04DC043F0F9
:1014B8004EC044F0000E466E030E456EE5EC0BF090
:1014C80060000FF1F7FB600013F1F8FB3B01FC8FA4
:1014D800FC8DBC828EEF0AF0000E3D6E000E3C6E55
:1014E800BC92020E426E8EEF0AF04250496E4A6A72
:1014F8004A50000AD8B483EF0AF08EEF0AF0495038
:10150800000AD8B410EF0AF0010AD8B470EF0AF054
:101518008EEF0AF01200000E3B01FC6F750E000101
:10152800626F62513B01F96FFA6BFB6B3D0EF16F15
:10153800110EF06FE70EFD17FD51F90B0209FD6F53
:101548003F0EFD17000EF86F960EF76F000EEF6F47
:10155800010EEE6FFD81FD9B150EFF6F000EFE6FF5
:10156800FC9D3901550EEF6FAA0EEF6FEF91030E38
:101578003901F26F020EF16F000EF36F010EF46F76
:10158800040EF76F3901550EEF6FAA0EEF6FEF815A
:101598003B01FC8F3901A293A291A297A295929345
:1015A80092811C0E0001606F140E616F52EC0CF0FA
:1015B800390192979295800E3B01FC6F1200000E44
:1015C800BE6E000EBD6E000EBA6E000EBB6E000E33
:1015D800BC6E070EC66EC268C368F60EC46EC568D8
:1015E8003A017069E70E606F5069070E806FFE0E52
:1015F800406F000E716F000E816F000E516F000E6C
:10160800416F000E616F000E5A6F000E5B6F000E87
:101618006A6F000E6B6F000E7A6F000E7B6F000E04
:10162800826F000E426F000E526F000E626F000E46
:10163800726F4369536963697369070E836F4469FD
:101648005469646974690F0E846F020E106F130E6B
:10165800DE6F1E0E136F000ED96F140EDF6F1200AF
:1016680000EE75F010EED0F2EE6AE550E150FCE1C4
:10167800E250FAE100EE6BF00A0EEE6AE806FDE1D0
:1016880000EE01F0420EEE6AE806FDE1080ED56EA6
:10169800000ED66E000ED76E000104EF08F06F0042
:1016A800E8FF4FF06F00ECFF50F0390192A15FEFB7
:1016B8000BF061EF0BF06AEF0BF0A2A166EF0BF0F5
:1016C80068EF0BF06AEF0BF08AEC0BF0600043F167
:1016D800FBFF60003FF1FAFF11003901A4B577EF75
:1016E8000BF07AEF0BF0010E7BEF0BF0000E000110
:1016F800606F6051D8B483EF0BF085EF0BF087EF84
:101708000BF03901A4950001605112003901A29132
:1017180051505210D8B493EF0BF095EF0BF0A1EFA6
:101728000BF002D8A1EF0BF00500FA6E5150FD6ED8
:101738005250FE6EFF6AFA501200120057EC0CF07D
:10174800FAEC0BF0E3EC0AF034EC0CF08FEC0AF056
:10175800CFEC0BF028EC0CF00CEC0CF040EC0CF09F
:101768001BEC0CF04BEC0CF0120000016051620312
:101778006F00CCFF64F06F00D0FF65F06051630329
:10178800F350652761516203F350652764C060F028
:1017980065C061F01200000E3C016B6F180E6C6F93
:1017A8002C0E6D6F2B0E6E6F000E6F6F080E706F24
:1017B800220E716F000E726F000E736F800E6A6FCB
:1017C8001200435045026F00CCFF47F06F00D0FF76
:1017D80048F043504602F350482644504502F3501F
:1017E800482647C043F048C044F01200000E3901B3
:1017F800C06F000EC16F000EC26F000EC36F000EE7
:10180800C46F000EC56F000EC66F000EC76F1200C2
:10181800010EAE6E000EAD6E000EAF6E090EAB6E11
:10182800000EAA6E3901A495800EAC6E1200830ECC
:101838003D01146F000E156F020E166F050E1C6F1A
:10184800000E196FC4961200800E6E6E040E6D6E37
:10185800C00E6C6E3F015F51FC0B01095F6F1200F7
:10186800600E3901D96F000EDB6F000EDD6F080EB8
:10187800DF6F000EDE6F1200460EB96EF90EB76EFE
:10188800000EB66E3901A39F800EB86E1200550E79
:101898003901EF6FAA0EEF6FEF81120060C051F0AF
:0A18A80061C052F01200D29A120043
:020000040020DA
:10000000FF0FFF0FFF0FFF0FFF0FFF0FFF0FFF0F80
:020000040030CA
:0A0000008CFFF7FF9FFFFFFFFFFFDB
:00000001FF
