:040000000DEF00F010
:04000800E1EF09F02B
:06001800FF00FFEF09F0FC
:071000000083000200000064
:1010080030EC0AF0D28E000E486E000E476E47C0D4
:101018003EF048C03FF0000E416E030E406E73EC88
:101028000AF0300E3E24D96E0D0E3F20DA6E000E07
:10103800DF6E47C03EF048C03FF0000E416E030E21
:10104800406E73EC0AF0310E3E24D96E0D0E3F202F
:10105800DA6E000EDF6E47C03EF048C03FF0000E6B
:10106800416E030E406E73EC0AF0320E3E24D96EC8
:101078000D0E3F20DA6E000EDF6E474A482A48BE42
:101088004FEF08F0485009E1F00E475CD8A04FEF49
:1010980008F051EF08F00BEF08F03D011A83D00E6D
:1010A800446ECA0EE82EFED7442EFCD7C492000E1A
:1010B800236E000E246E000E256E000E266E000EA6
:1010C800026E000E016E050E0A6E000E086E000E0E
:1010D800096E000E046E050E036E000E066E020EFB
:1010E800056E010E076E4B0E236E000E246E000E69
:1010F800256E000E266E010E466EBB0E456E47EC41
:101108000AF0E806D8A48BEF08F08DEF08F083EF1B
:1011180008F04506D8A0460645504610D8A497EFD3
:1011280008F099EF08F083EF08F02306000E245A20
:10113800255A265A2350241025102610D8A4A7EF84
:1011480008F0A9EF08F07FEF08F0000E2F6E3B01C2
:10115800FC9F300EF96F0D0EFA6F000EFB6F020E3A
:10116800F86FEE0EF76FFC8FBC82FC8D77EF08F0FE
:101178000DEF00F029EF09F0BC923B01FC9FFA0E3D
:101188002926000E2A2229C030F02AC031F0000E8C
:10119800336E030E326E88EC0AF0300E366E0D0E8A
:1011A800376E30503626315037226000DBF0F9FBBD
:1011B8006000DFF0FAFB3B01FB6B000E3B6EFA0EA2
:1011C8003A6E3A502924386E3B502A20396E39BE7F
:1011D800F7EF08F0395009E1F00E385CD8A0F7EFC6
:1011E80008F0F9EF08F00AEF09F0FF0E3B6EF60E73
:1011F8003A6E010E2F6E3A503B10D8A406EF09F054
:1012080008EF09F00AEF09F03EEF09F03AC030F0B4
:101218003BC031F0000E336E030E326E88EC0AF0DC
:101228006000C3F0F7FB6000C7F0F8FB3B01FC8FE0
:10123800FC8DBC823EEF09F0000E2A6E000E296E6E
:10124800BC92020E2F6E3EEF09F02F50366E376AB1
:101258003750000AD8B433EF09F03EEF09F03650A2
:10126800000AD8B4C0EF08F0010AD8B420EF09F09A
:101278003EEF09F01200000EBE6E000EBD6E000EAD
:10128800BA6E000EBB6E000EBC6E070EC66EC2684C
:10129800C368F60EC46EC5683A017069E70E606FE0
:1012A8005069070E806FFE0E406F000E716F000EC2
:1012B800816F000E516F000E416F000E616F000EBE
:1012C8005A6F000E5B6F000E6A6F000E6B6F000E98
:1012D8007A6F000E7B6F000E826F000E426F000E59
:1012E800526F000E626F000E726F43695369636933
:1012F8007369070E836F44695469646974690F0ED2
:10130800846F020E106F130EDE6F1E0E136F000E29
:10131800D96F140EDF6F1200000E3B01FC6F300E08
:10132800406E4050F96FFA6BFB6B3D0EF16F110E7A
:10133800F06FE70EFD17FD51F90B0209FD6F3F0E27
:10134800FD17000EF86F960EF76F000EEF6F010E87
:10135800EE6FFD81FD9B150EFF6F000EFE6FFC9D6D
:101368003901550EEF6FAA0EEF6FEF91030E390199
:10137800F26F020EF16F000EF36F010EF46F040EA0
:10138800F76F3901550EEF6FAA0EEF6FEF813B0132
:10139800FC8F3901A293A291A297A2959293928170
:1013A8007C0E3E6E110E3F6EF5EC0AF039019297F5
:1013B8009295800E3B01FC6F12006F00E8FF3CF035
:1013C8006F00ECFF3DF0390192A1EDEF09F0EFEF6E
:1013D80009F0F8EF09F0A2A1F4EF09F0F6EF09F02F
:1013E800F8EF09F018EC0AF06000F7F0FBFF600076
:1013F800F3F0FAFF110003EE30F110EED0F2EE6ACE
:10140800E550E150FCE1E250FAE100EE01F02F0E68
:10141800EE6AE806FDE1080ED56E000ED66E000EE7
:10142800D76E000104EF08F03901A29149504A1023
:10143800D8B421EF0AF023EF0AF02FEF0AF002D810
:101448002FEF0AF00500FA6E4950FD6E4A50FE6E05
:10145800FF6AFA5012001200FAEC0AF09DEC0AF04A
:101468003FEC09F0D7EC0AF090EC09F05DEC0AF0DB
:10147800CBEC0AF0AFEC0AF0E3EC0AF0BEEC0AF0B1
:10148800EEEC0AF012003901A4B54DEF0AF050EF66
:101498000AF0010E51EF0AF0000E3E6E3E50D8B42D
:1014A80058EF0AF05AEF0AF05BEF0AF0A4953E50A5
:1014B8001200000E3C016B6F180E6C6F2C0E6D6FD6
:1014C8002B0E6E6F000E6F6F080E706F220E716F0D
:1014D800000E726F000E736F800E6A6F12003E501E
:1014E80040026F00CCFF42F06F00D0FF43F03E5047
:1014F8004102F35043263F504002F350432642C076
:101508003EF043C03FF01200305032026F00CCFF73
:1015180034F06F00D0FF35F030503302F3503526E9
:1015280031503202F350352634C030F035C031F036
:101538001200000E3901C06F000EC16F000EC26F9D
:10154800000EC36F000EC46F000EC56F000EC66F8D
:10155800000EC76F1200010EAE6E000EAD6E000ECB
:10156800AF6E090EAB6E000EAA6E3901A495800EFF
:10157800AC6E1200830E3D01146F000E156F020E43
:10158800166F050E1C6F000E196FC4961200800EA0
:101598006E6E040E6D6EC00E6C6E3F015F51FC0BDB
:1015A80001095F6F1200600E3901D96F000EDB6F01
:1015B800000EDD6F080EDF6F000EDE6F1200460EA4
:1015C800B96EF90EB76E000EB66E3901A39F800E84
:1015D800B86E1200550E3901EF6FAA0EEF6FEF814A
:1015E80012003EC049F03FC04AF01200D29A1200E1
:020000040020DA
:10000000FF0FFF0FFF0FFF0FFF0FFF0FFF0FFF0F80
:020000040030CA
:0A0000008CFFF7FF9FFFFFFFFFFFDB
:00000001FF
