:040000000DEF00F010
:0400080079EF0BF091
:06001800FF005AEF0BF09F
:071000000083000200000064
:10100800AFEC0BF0D28E000E0001726F000E716F04
:1010180071C06AF072C06BF0000E6D6F030E6C6FDA
:10102800C6EC0BF0750E00016A25D96E000E6B2117
:10103800DA6E000EDF6E71C06AF072C06BF0000EDF
:101048006D6F030E6C6FC6EC0BF0730E00016A2512
:10105800D96E000E6B21DA6E000EDF6E71C06AF079
:1010680072C06BF0000E6D6F030E6C6FC6EC0BF068
:10107800740E00016A25D96E000E6B21DA6E000E1F
:10108800DF6E714B722B72BF53EF08F0725109E19A
:10109800F00E715DD8A053EF08F055EF08F00CEF93
:1010A80008F03D011A83D00E00016E6FC90EE82EBC
:1010B800FED76E2FFCD700D0C492000E336E000E00
:1010C800346E000E356E000E366E000E1A6E0A0E65
:1010D800196E000E1C6E000E1B6E320E246E000E72
:1010E800226E000E236E000E1E6E050E1D6E000E83
:1010F8001F6E000E206E010E216E000E0E6E280E61
:101108000D6E000E106E320E0F6E000E186E320E3F
:10111800166E000E176E000E126E050E116E000E82
:10112800136E000E146E1568000E026E640E016ECA
:10113800000E046E500E036E000E0C6E000E0A6E4A
:10114800320E0B6E000E066E050E056E010E076E52
:10115800000E086E010E096E280E336E000E346EF6
:10116800000E356E000E366E010E0001706FBB0E5C
:101178006F6FDCEC0BF0E806D8A4C5EF08F0C7EFFA
:1011880008F0BDEF08F000016F07D8A070076F5195
:101198007011D8A4D2EF08F0D4EF08F0BDEF08F032
:1011A8003306000E345A355A365A33503410351037
:1011B8003610D8A4E2EF08F0E4EF08F0B8EF08F032
:1011C8001BC06AF01CC06BF0000E6D6F030E6C6FD5
:1011D800C6EC0BF0750E00016A25D96E000E6B2166
:1011E800DA6E000EDF6E19C06AF01AC06BF0000EDE
:1011F8006D6F030E6C6FC6EC0BF0750E00016A255F
:10120800D96E000E6B21DA6E600093F0DFFF2006C6
:101218002028D8A412EF09F014EF09F046EF09F0DE
:101228001FC020F021501B26000E21BEFF0E1C22DD
:101238001CBE28EF09F01C5009E1F00E1B5CD8A079
:1012480028EF09F02AEF09F02EEF09F0000E1C6EC6
:10125800000E1B6E21501926000E21BEFF0E1A2209
:101268001ABE40EF09F01A5009E1F00E195CD8A037
:1012780040EF09F042EF09F046EF09F0000E1A6E50
:10128800000E196E0FC06AF010C06BF0000E6D6F83
:10129800030E6C6FC6EC0BF0730E00016A25D96E55
:1012A800000E6B21DA6E000EDF6E0DC06AF00EC004
:1012B8006BF0000E6D6F030E6C6FC6EC0BF0730EC7
:1012C80000016A25D96E000E6B21DA6E60005BF0B2
:1012D800DFFF14061428D8A474EF09F076EF09F09C
:1012E800BEEF09F013C014F015500F26000E15BEFE
:1012F800FF0E102210BE8AEF09F0105009E1F00E1F
:101308000F5CD8A08AEF09F08CEF09F090EF09F094
:10131800000E106E000E0F6E10BE97EF09F095EFDD
:1013280009F09BEF09F0000E106EF00E0F6E1550CD
:101338000D26000E15BEFF0E0E220EBEADEF09F0F3
:101348000E5009E1F00E0D5CD8A0ADEF09F0AFEF3B
:1013580009F0B3EF09F0000E0E6E000E0D6E0EBE12
:10136800BAEF09F0B8EF09F0BEEF09F0000E0E6E03
:10137800F00E0D6E03C06AF004C06BF0000E6D6FC6
:10138800030E6C6FC6EC0BF0740E00016A25D96E63
:10139800000E6B21DA6E000EDF6E01C06AF002C02B
:1013A8006BF0000E6D6F030E6C6FC6EC0BF0740ED5
:1013B80000016A25D96E000E6B21DA6E60002FF0ED
:1013C800DFFF08060828D8A4ECEF09F0EEEF09F0D3
:1013D80020EF0AF007C008F009500326000E09BEE6
:1013E800FF0E042204BE02EF0AF0045009E1F00ED9
:1013F800035CD8A002EF0AF004EF0AF008EF0AF045
:10140800000E046E000E036E09500126000E09BE80
:10141800FF0E022202BE1AEF0AF0025009E1F00E96
:10142800015CD8A01AEF0AF01CEF0AF020EF0AF0CE
:10143800000E026E000E016E000E3F6E3B01FC9F17
:10144800730EF96F000EFA6F000EFB6F020EF86F45
:10145800EE0EF76FFC8FBC82FC8DB0EF08F00DEF3D
:1014680000F0A0EF0AF0BC923B01FC9FFA0E39266F
:10147800000E3A2239C040F03AC041F0000E436EE7
:10148800030E426E08EC0CF0730E466E000E476EAB
:10149800405046264150472260001BF1F9FB60008E
:1014A8001FF1FAFB3B01FB6B000E4B6EFA0E4A6E06
:1014B8004A503924486E4B503A20496E49BE6EEF67
:1014C8000AF0495009E1F00E485CD8A06EEF0AF026
:1014D80070EF0AF081EF0AF0FF0E4B6EF60E4A6EBF
:1014E800010E3F6E4A504B10D8A47DEF0AF07FEFF3
:1014F8000AF081EF0AF0B5EF0AF04AC040F04BC09D
:1015080041F0000E436E030E426E08EC0CF06000D2
:1015180003F1F7FB600007F1F8FB3B01FC8FFC8D42
:10152800BC82B5EF0AF0000E3A6E000E396EBC921E
:10153800020E3F6EB5EF0AF03F50466E476A4750BD
:10154800000AD8B4AAEF0AF0B5EF0AF04650000A2C
:10155800D8B437EF0AF0010AD8B497EF0AF0B5EF1C
:101568000AF01200000E3B01FC6F730E00016A6F57
:101578006A513B01F96FFA6BFB6B3D0EF16F110E6F
:10158800F06FE70EFD17FD51F90B0209FD6F3F0ED5
:10159800FD17000EF86F960EF76F000EEF6F010E35
:1015A800EE6FFD81FD9B150EFF6F000EFE6FFC9D1B
:1015B8003901550EEF6FAA0EEF6FEF91030E390147
:1015C800F26F020EF16F000EF36F010EF46F040E4E
:1015D800F76F3901550EEF6FAA0EEF6FEF813B01E0
:1015E800FC8F3901A293A291A297A295929392811E
:1015F8006A0E4E6E140E4F6E75EC0CF03901929710
:101608009295800E3B01FC6F1200000EBE6E000E1C
:10161800BD6E000EBA6E000EBB6E000EBC6E070EDD
:10162800C66EC268C368F60EC46EC5683A017069B2
:10163800E70E606F5069070E806FFE0E406F000E58
:10164800716F000E816F000E516F000E416F000E1A
:10165800616F000E5A6F000E5B6F000E6A6F000E0E
:101668006B6F000E7A6F000E7B6F000E826F000E9C
:10167800426F000E526F000E626F000E726F436968
:10168800536963697369070E836F446954696469B0
:1016980074690F0E846F020E106F130EDE6F1E0E2C
:1016A800136F000ED96F140EDF6F120000EE73F087
:1016B80010EED0F2EE6AE550E150FCE1E250FAE1BA
:1016C80000EE60F00A0EEE6AE806FDE100EE01F0B9
:1016D8003F0EEE6AE806FDE1080ED56E000ED66EE6
:1016E800000ED76E000104EF08F06F00E8FF4CF021
:1016F8006F00ECFF4DF0390192A185EF0BF087EFF9
:101708000BF090EF0BF0A2A18CEF0BF08EEF0BF02B
:1017180090EF0BF097EC0BF0600037F1FBFF6000E7
:1017280033F1FAFF11003901A29150505110D8B489
:10173800A0EF0BF0A2EF0BF0AEEF0BF002D8AEEF7C
:101748000BF00500FA6E5050FD6E5150FE6EFF6AA8
:10175800FA50120012007AEC0CF01DEC0CF009ECB7
:101768000BF057EC0CF0B6EC0AF0F2EC0BF04BEC8B
:101778000CF02FEC0CF063EC0CF03EEC0CF06EEC83
:101788000CF0120000016A516C036F00CCFF4EF0A0
:101798006F00D0FF4FF06A516D03F3504F266B5125
:1017A8006C03F3504F264EC06AF04FC06BF0120026
:1017B8003901A4B5E2EF0BF0E5EF0BF0010EE6EF0F
:1017C8000BF0000E4E6E4E50D8B4EDEF0BF0EFEF6D
:1017D8000BF0F0EF0BF0A4954E501200000E3C01F8
:1017E8006B6F180E6C6F2C0E6D6F2B0E6E6F000EDC
:1017F8006F6F080E706F220E716F000E726F000E01
:10180800736F800E6A6F1200405042026F00CCFF67
:1018180044F06F00D0FF45F040504302F350452696
:1018280041504202F350452644C040F045C041F0C3
:101838001200000E3901C06F000EC16F000EC26F9A
:10184800000EC36F000EC46F000EC56F000EC66F8A
:10185800000EC76F1200010EAE6E000EAD6E000EC8
:10186800AF6E070EAB6E000EAA6E3901A495800EFE
:10187800AC6E1200830E3D01146F000E156F020E40
:10188800166F050E1C6F000E196FC4961200800E9D
:101898006E6E040E6D6EC00E6C6E3F015F51FC0BD8
:1018A80001095F6F1200600E3901D96F000EDB6FFE
:1018B800000EDD6F080EDF6F000EDE6F1200460EA1
:1018C800B96EF90EB76E000EB66E3901A39F800E81
:1018D800B86E1200550E3901EF6FAA0EEF6FEF8147
:1018E80012004EC050F04FC051F01200D29A1200B0
:020000040020DA
:10000000FF0FFF0FFF0FFF0FFF0FFF0FFF0FFF0F80
:020000040030CA
:0A0000008CFFF7FF9FFFFFFFFFFFDB
:00000001FF
