:040000000DEF00F010
:04000800CDEF09F03F
:06001800FF00EBEF09F010
:071000000083000200000064
:101008001CEC0AF0D28E000E496E000E486E48C0E5
:101018003FF049C040F0000E426E030E416E5FEC97
:101028000AF0300E3F24D96E0D0E4020DA6E000E05
:10103800DF6E48C03FF049C040F0000E426E030E1C
:10104800416E5FEC0AF0310E3F24D96E0D0E402040
:10105800DA6E000EDF6E48C03FF049C040F0000E67
:10106800426E030E416E5FEC0AF0320E3F24D96ED9
:101078000D0E4020DA6E000EDF6E484A492A49BE3E
:101088004FEF08F0495009E1F00E485CD8A04FEF47
:1010980008F051EF08F00BEF08F03D011A83D00E6D
:1010A800456ECA0EE82EFED7452EFCD7C492000E18
:1010B800246E000E256E000E266E000E276E4B0E57
:1010C800246E000E256E000E266E000E276E010E91
:1010D800476EBB0E466E33EC0AF0E806D8A477EFED
:1010E80008F079EF08F06FEF08F04606D8A0470639
:1010F80046504710D8A483EF08F085EF08F06FEF4B
:1011080008F02406000E255A265A275A245025107E
:1011180026102710D8A493EF08F095EF08F06BEF8E
:1011280008F0000E306E3B01FC9F300EF96F0D0E7B
:10113800FA6F000EFB6F020EF86FEE0EF76FFC8F62
:10114800BC82FC8D63EF08F00DEF00F015EF09F09D
:10115800BC923B01FC9FFA0E2A26000E2B222AC0C5
:1011680031F02BC032F0000E346E030E336E74EC87
:101178000AF0300E376E0D0E386E31503726325069
:1011880038226000DFF0F9FB6000E3F0FAFB3B0176
:10119800FB6B000E3C6EFA0E3B6E3B502A24396EF8
:1011A8003C502B203A6E3ABEE3EF08F03A5009E182
:1011B800F00E395CD8A0E3EF08F0E5EF08F0F6EFA1
:1011C80008F0FF0E3C6EF60E3B6E010E306E3B5083
:1011D8003C10D8A4F2EF08F0F4EF08F0F6EF08F0AE
:1011E8002AEF09F03BC031F03CC032F0000E346EFB
:1011F800030E336E74EC0AF06000C7F0F7FB600072
:10120800CBF0F8FB3B01FC8FFC8DBC822AEF09F088
:10121800000E2B6E000E2A6EBC92020E306E2AEF64
:1012280009F03050376E386A3850000AD8B41FEFCA
:1012380009F02AEF09F03750000AD8B4ACEF08F0EB
:10124800010AD8B40CEF09F02AEF09F01200000ED9
:10125800BE6E000EBD6E000EBA6E000EBB6E000EA6
:10126800BC6E070EC66EC268C368F60EC46EC5684B
:101278003A017069E70E606F5069070E806FFE0EC5
:10128800406F000E716F000E816F000E516F000EDF
:10129800416F000E616F000E5A6F000E5B6F000EFB
:1012A8006A6F000E6B6F000E7A6F000E7B6F000E78
:1012B800826F000E426F000E526F000E626F000EBA
:1012C800726F4369536963697369070E836F446971
:1012D8005469646974690F0E846F020E106F130EDF
:1012E800DE6F1E0E136F000ED96F140EDF6F120023
:1012F800000E3B01FC6F300E416E4150F96FFA6BE6
:10130800FB6B3D0EF16F110EF06FE70EFD17FD51EF
:10131800F90B0209FD6F3F0EFD17000EF86F960ED0
:10132800F76F000EEF6F010EEE6FFD81FD9B150E3E
:10133800FF6F000EFE6FFC9D3901550EEF6FAA0E70
:10134800EF6FEF91030E3901F26F020EF16F000E8D
:10135800F36F010EF46F040EF76F3901550EEF6F3E
:10136800AA0EEF6FEF813B01FC8F3901A293A29186
:10137800A297A29592939281540E3F6E110E406EE1
:10138800E1EC0AF0390192979295800E3B01FC6FCF
:1013980012006F00E8FF3DF06F00ECFF3EF03901EE
:1013A80092A1D9EF09F0DBEF09F0E4EF09F0A2A16F
:1013B800E0EF09F0E2EF09F0E4EF09F004EC0AF0DD
:1013C8006000FBF0FBFF6000F7F0FAFF110003EE8E
:1013D80030F110EED0F2EE6AE550E150FCE1E25057
:1013E800FAE100EE01F0300EEE6AE806FDE1080EC3
:1013F800D56E000ED66E000ED76E000104EF08F011
:101408003901A2914A504B10D8B40DEF0AF00FEFF2
:101418000AF01BEF0AF002D81BEF0AF00500FA6E7B
:101428004A50FD6E4B50FE6EFF6AFA5012001200D1
:10143800E6EC0AF089EC0AF02BEC09F0C3EC0AF0B0
:101448007CEC09F049EC0AF0B7EC0AF09BEC0AF0E6
:10145800CFEC0AF0AAEC0AF0DAEC0AF01200390133
:10146800A4B539EF0AF03CEF0AF0010E3DEF0AF09F
:10147800000E3F6E3F50D8B444EF0AF046EF0AF032
:1014880047EF0AF0A4953F501200000E3C016B6F25
:10149800180E6C6F2C0E6D6F2B0E6E6F000E6F6F2B
:1014A800080E706F220E716F000E726F000E736F50
:1014B800800E6A6F12003F5041026F00CCFF43F06C
:1014C8006F00D0FF44F03F504202F3504426405092
:1014D8004102F350442643C03FF044C040F012009C
:1014E800315033026F00CCFF35F06F00D0FF36F07B
:1014F80031503402F350362632503302F350362638
:1015080035C031F036C032F01200000E3901C06F1C
:10151800000EC16F000EC26F000EC36F000EC46FC5
:10152800000EC56F000EC66F000EC76F1200010EC9
:10153800AE6E000EAD6E000EAF6E090EAB6E000EF5
:10154800AA6E3901A495800EAC6E1200830E3D017F
:10155800146F000E156F020E166F050E1C6F000E2D
:10156800196FC4961200800E6E6E040E6D6EC00E5A
:101578006C6E3F015F51FC0B01095F6F1200600E3A
:101588003901D96F000EDB6F000EDD6F080EDF6FBB
:10159800000EDE6F1200460EB96EF90EB76E000E21
:1015A800B66E3901A39F800EB86E1200550E390130
:1015B800EF6FAA0EEF6FEF8112003FC04AF040C0F4
:0815C8004BF01200D29A120050
:020000040020DA
:10000000FF0FFF0FFF0FFF0FFF0FFF0FFF0FFF0F80
:020000040030CA
:0A0000008CFFF7FF9FFFFFFFFFFFDB
:00000001FF
